{
  "_format": "hh-sol-artifact-1",
  "contractName": "Counter",
  "sourceName": "contracts/Counter.sol",
  "abi": [
    {
      "inputs": [
        {
          "internalType": "uint256",
          "name": "startingValue",
          "type": "uint256"
        }
      ],
      "stateMutability": "nonpayable",
      "type": "constructor"
    },
    {
      "inputs": [],
      "name": "increment",
      "outputs": [],
      "stateMutability": "nonpayable",
      "type": "function"
    },
    {
      "inputs": [],
      "name": "number",
      "outputs": [
        {
          "internalType": "uint256",
          "name": "",
          "type": "uint256"
        }
      ],
      "stateMutability": "view",
      "type": "function"
    }
  ],
  "bytecode": "0x6080604052348015600f57600080fd5b50604051610122380380610122833981016040819052602c916033565b600055604b565b600060208284031215604457600080fd5b5051919050565b60c9806100596000396000f3fe6080604052348015600f57600080fd5b506004361060325760003560e01c80638381f58a146037578063d09de08a146051575b600080fd5b603f60005481565b60405190815260200160405180910390f35b60576059565b005b600080549080606683606d565b9190505550565b600060018201608c57634e487b7160e01b600052601160045260246000fd5b506001019056fea264697066735822122091a483f35204bb187400e4e7cffe923b31a25c3dd624f15cc570a959e91505e364736f6c634300081c0033",
  "linkReferences": {},
  "deployedLinkReferences": {}
}